:020000040800F2
:1000000018050020D5000008D12400086D1A00084A
:1000100000000000000000000000000000000000E0
:10002000000000000000000000000000F52F0008A4
:1000300000000000000000003D26000857330008C3
:10004000E7000008E7000008E7000008E7000008F4
:10005000E7000008E7000008E700000809090008B9
:10006000E7000008E7000008E7000008E7000008D4
:10007000E7000008E700000800000000E7000008B3
:1000800000000000E7000008000000000000000081
:10009000E700000800000000E7000008E700000893
:1000A000E7000008E7000008E7000008E700000894
:1000B00091350008E700000800000000E700000894
:1000C0000348854600F06CF8004800477139000885
:1000D000180500200448804704480047FEE7FEE773
:1000E000FEE7FEE7FEE7FEE7F5330008C100000883
:1000F00030B50B46014600202022012409E00D46C0
:10010000D5409D4205D31D469540491B2546954047
:1001100040191546521E002DF1DC30BDD2B201E06F
:100120000270401C491EFBD270470022F6E710B552
:1001300013460A4604461946FFF7F0FF204610BD55
:10014000F0B51FB40646002082B005464024019158
:1001500000901BE0019922460F46304600F042F81D
:10016000049A059B801A994110D3104619462246DD
:1001700000F028F8361A8F4101972246012000210D
:10018000009F00F01FF838184D4100902046641E73
:100190000028DFDC019B00982946324607B0F0BDFD
:1001A000064C0125064E05E0E36807CC2B430C3CCA
:1001B00098471034B442F7D3FFF786FF603A00083F
:1001C000803A000810B5202A04DB0146203A91400D
:1001D000002010BD914020239C1A0346E3401943A0
:1001E000904010BD10B5202A04DB0846203AD040CC
:1001F000002110BD0B46D340D0402024A21A9140CC
:100200000843194610BD7CB504460122D1030520E0
:10021000000700F0B4FD002220210520000700F0B7
:10022000AEFD0B216846017144710123022269462B
:1002300001A803F077F868460578012220210520FF
:10024000000700F09CFD28467CBD7CB504460D46A9
:100250000122D1030520000700F091FD002220219A
:100260000520000700F08BFD0A21684601714471EA
:10027000857100230322694601A803F053F8012287
:1002800020210520000700F07AFD7CBD10B5522129
:100290001F20FFF7DAFF7D20C00000F0C5FC5E21C3
:1002A0002020FFF7D2FF01212120FFF7CEFF96216A
:1002B0002320FFF7CAFF00212420FFF7C6FF0121FA
:1002C0002520FFF7C2FF00212620FFF7BEFF3F21B8
:1002D0002720FFF7BAFF40212A20FFF7B6FF0021B1
:1002E0002B20FFF7B2FF00212820FFF7AEFF0021EF
:1002F0002920FFF7AAFF10212C20FFF7A6FF0A21D3
:100300002D20FFF7A2FFC82000F08EFC10BDF8B52D
:1003100004460F4615461E4652211F20FFF795FF43
:100320007D20C00000F080FC39462020FFF78DFFC3
:1003300021462120FFF789FF31462320FFF785FF63
:1003400029462420FFF781FF25200799FFF77DFF2D
:1003500026200699FFF779FF3F212720FFF775FF39
:1003600040212A20FFF771FF00212B20FFF76DFFAE
:1003700000212820FFF769FF00212920FFF765FFF2
:100380002C200899FFF761FF0A212D20FFF75DFF60
:10039000C82000F049FCF8BD00BF044800684021B7
:1003A00008430249086000BF704700000030014068
:1003B00010B500BF00BF0B48C069012149050840C6
:1003C000400D0028F6D000BF0648C069490008402B
:1003D000800D0028EED0034801F0BFFD014801F078
:1003E000B7FD10BD0044004010B501464A228029E7
:1003F00007DBCB1FF93BDC0FE4186410A41A20B212
:1004000005E00B46CC0FE4186410A41A20B210BD0E
:1004100010B500F09CF93A2000F0EEF910BD10B5CF
:1004200000F095F93B2000F0E7F910BD10B53B2036
:1004300000F075F84006400E10BD000070B506468D
:100440000D4600F0C4F8002409E062000B4BD218FE
:1004500051786200985C00F00EFA601CC4B22F2C38
:10046000F3DB0321304600F055F9284600F074F91B
:10047000082203493E2000F0D8F970BDDF3900089A
:1004800000000020F7B505460E4601222021052078
:10049000000700F074FC00220121C90305200007B9
:1004A00000F06DFCC0212943084602F083FD0024C2
:1004B0000BE0002701E0781CC7B2142FFBDBFF2004
:1004C00002F078FD3055601CC4B202988442F0DB23
:1004D0000122D1030520000700F051FCFEBD70B5DC
:1004E0000446012220210520000700F048FC0022DC
:1004F0000121C9030520000700F041FC80212143B0
:10050000084602F057FDFF2002F054FD0546012287
:10051000D1030520000700F032FC284670BD70B5FD
:100520000446012220210520000700F028FC0022BB
:100530000121C9030520000700F021FCC02121434F
:10054000084602F037FDFF2002F034FD0546012287
:10055000D1030520000700F012FC284670BDF8B555
:1005600005460E461746FFF761FF00282DD03F20B5
:10057000FFF7B5FF04460720FFF7B1FF80088000B2
:10058000002803D03F20FFF7AAFF3070002C01D1D4
:100590000020F8BD601EC4B2224629463F20FFF766
:1005A00071FF022269463F20FFF76CFF6846007822
:1005B0003870FFF72DFF68464078802108400028FA
:1005C00001D02046E5E70120E3E70020E1E710B590
:1005D000012220210520000700F0D1FB0122D103D8
:1005E0000520000700F0CBFB00220121C9030520F4
:1005F000000700F0C4FB0122D1030520000700F032
:10060000BEFB002401E0601C84B27D20C000844257
:10061000F9DB302000F0F0F8002401E0601C84B227
:100620007D20C0008442F9DB10BD0000F7B58AB020
:100630000C46002707E039463C310A98405C01A986
:10064000C855781CC7B2212FF5DB00202E49087051
:100650000C98002801D1002606E00C98012803D14F
:100660000920FFF73CFF0646FFF7D9FE0720FFF7FA
:1006700036FF80088000002809D0601CC1B23F20EE
:1006800000F0F9F831463F2000F0F5F803E021468C
:100690003F2000F0F0F83C2C08DC22463F200A996D
:1006A00000F0C3F8002000F063F813E03C223F2084
:1006B0000A9900F0BAF8002000F05AF800BF12487A
:1006C00000780128FBD120463C38C2B201A93F2066
:1006D00000F0ABF80D4D00E06D1E40210C4800F01D
:1006E00045FB002801D0002DF6D1084D00E06D1E1D
:1006F0004021074800F03AFB002801D1002DF6D137
:10070000FFF78DFE0DB0F0BD2500002020A10700F1
:100710000004005070B506460C460720FFF7DFFEC8
:100720008508AD003146092000F0A5F8002C0DD059
:10073000012C02D10120054308E0022C02D1022045
:10074000054303E0032C01D10320054370BD10B520
:10075000362000F051F810BD10B504462004010EFB
:10076000042000F088F8E1B2052000F084F810BD04
:1007700010B50446002C0BD14621022000F07BF876
:100780000221002000F077F8352000F035F80CE069
:10079000012C0AD14621022000F06DF80021084604
:1007A00000F069F8342000F027F810BD10B546219C
:1007B000022000F060F80021084600F05CF83C20C0
:1007C00000F01AF8382000F017F810BD10B5182105
:1007D000084600F050F87821202000F04CF8032162
:1007E000162000F048F88C211E2000F044F8A021CB
:1007F0001F2000F040F810BD10B504460122202152
:100800000520000700F0BBFA00220121C9030520E2
:10081000000700F0B4FA204602F0CCFB0122D1031D
:100820000520000700F0ABFA10BDF8B505460E46EE
:100830001746012220210520000700F0A0FA00221F
:100840000121C9030520000700F099FA402129433E
:10085000084602F0AFFB002404E0305D02F0AAFB82
:10086000601CC4B2BC42F8DB0122D10305200007A2
:1008700000F085FAF8BD70B505460C46012220212E
:100880000520000700F07BFA00220121C9030520A2
:10089000000700F074FA284602F08CFB204602F0B4
:1008A00089FB0122D1030520000700F068FA70BD22
:1008B00070B504460D4600F033FA002801D000F070
:1008C000CFF80D480D498861204600F0D3F9002883
:1008D00001D000F0C5F800F0C3F92A4621460220F5
:1008E00000F0E8F9002801D000F0BAF800F0AEF905
:1008F00000F0D6F970BD0000002D0300002002407A
:10090000014608687047000010B5802001F044F9E6
:1009100000280DD0802001F0ABF80C480078400092
:100920000B49085A401C094909784900084A5052A5
:100930000120000301F030F9002806D00120000357
:1009400001F096F801200349087010BD1F00002037
:10095000340000202500002008B51C200121814022
:100960003C4A116000BF3C48C069009004210098D7
:100970000840002813D000BF04203749086200BF98
:10098000084601F0B5FA01F02FFD334801F0E5FA11
:10099000314801F0DDFA00203049087058E00221AA
:1009A00000980840002813D000BF02202A4908629E
:1009B00000BF084601F09CFA01F016FD264801F040
:1009C000CCFA254801F0C4FA0020244908703FE021
:1009D000082100980840002813D000BF08201E49B5
:1009E000086200BF084601F083FA01F0FDFC1A48D6
:1009F00001F0B3FA184801F0ABFA0020174908706B
:100A000026E00098C007C00F002813D000BF0120C7
:100A10001149086200BF084601F06AFA01F0E4FCDF
:100A20000D4801F09AFA0C4801F092FA00200B49A7
:100A300008700DE0084801F05BFA01F0D5FC0648AB
:100A400001F08BFA044801F083FA00200349087092
:100A500008BD000080E100E00044004023000020C9
:100A600070470000002039498969FF220132114096
:100A7000914208D13649496902221143344A5161F1
:100A8000FF21013108433149896901225202114095
:100A9000914208D12E494969012211432C4A5161E2
:100AA0000121490208432949896901229202114022
:100AB000914208D12649496908221143244A5161CB
:100AC000012189020843214989690122D20211408A
:100AD000914208D11E494969042211431C4A5161BF
:100AE0000121C902084319498969012252031140B1
:100AF000914208D11649496910221143144A5161A3
:100B00000121490308431149896901225204114016
:100B1000914207D10E494969202211430C4A516183
:100B20002021084309498969012212041140914298
:100B300008D10749496940221143054A5161012101
:100B40000904084301498861704700000020024001
:100B5000FC00002070B5044600F018F905460BE0D3
:100B6000601C002808D0002C04D000F00FF9401BB6
:100B7000A04201D9032070BD1F488069C007C00F83
:100B80000028EDD11C48806902210840022801D1CB
:100B90001949886118488069FF210131084088425D
:100BA00023D0154880694900084088421DD012486A
:100BB000806949000840884217D00F488069490081
:100BC0000840884211D00C4880698900084088425A
:100BD0000BD00948806909010840884205D00648C1
:100BE000806949100840884203D1FFF73BFF01208C
:100BF000C1E70020BFE7000000200240064800696E
:100C00000649086004484069054908600248406A8E
:100C100004490860704700004000F81F08000020E9
:100C20000C0000201000002070B5044600F0AEF863
:100C300006462546681C002800D06D1C00BF00F049
:100C4000A5F8801BA842FAD370BD00000348406895
:100C5000FF2101318843014948607047002002406C
:100C600003484068FF21013108430149486070474B
:100C70000020024070B5044600250748FFF76AFFD0
:100C80000546002D06D10549486120600248FFF75E
:100C900061FF0546284670BD50C30000FC000020DF
:100CA000034840680121084301494860002070471B
:100CB00000200240F8B504460D461646012700BF45
:100CC0001548007C012801D10220F8BD01201249FD
:100CD000087400BF1148FFF73DFF0746002F14D1ED
:100CE0000D494861022C01D12E6008E0012C01D190
:100CF0002E8004E0002C01D12E7000E00127002F8F
:100D000003D00648FFF726FF074600BF0020024930
:100D1000087400BF3846D8E7FC00002050C300002C
:100D20000F484068C007C00F002816D000BFEFF37F
:100D30001080014600BF72B60A48094AD0600A48CE
:100D4000D06000BF81F3108800BF10464068C00724
:100D5000C00F002801D0012070470020FCE70000F0
:100D600000200240EFCDAB8905040302024613695F
:100D70000B40002B01D0012000E000207047002A2A
:100D800001D0816100E08162704700000148006885
:100D9000704700002800002002480068401C0149FC
:100DA000086070472800002010B50024084800683B
:100DB0004021084306490860002000F00BF8002895
:100DC00001D0012401E000F01FF8204610BD000012
:100DD0000020024070B5044600257D21C900094865
:100DE0000068FFF785F9064600F024FE002801D0D0
:100DF000012504E000222146501E00F015F8284687
:100E000070BD00002C0000200648406B0121084303
:100E1000044948630846806B090408430149886314
:100E2000704700000010024070B504460D4616469B
:100E30002946204601F0C6FB70BD0000F8B5044607
:100E400020212068084020287CD1206808402028E4
:100E500000D100BF00278848806B012109070840A6
:100E6000002805D18448806B0843834988630127A3
:100E700082480068FF2101310840002816D17F48D0
:100E8000006808437D490860FFF780FF064606E0DA
:100E9000FFF77CFF801B642801D90320F8BD774849
:100EA0000068FF21013108400028F1D07248056830
:100EB000032109050D4060680840A8420DD00911C2
:100EC00060680840884208D16B48006801214904E5
:100ED0000840884201D10120E0E7674840300069BE
:100EE0000321090408400546002D3DD060680840F4
:100EF000A84239D0202120680840202834D15E48FB
:100F00004030006903210904884305465A484030AF
:100F100000690121C9040843574940310861084666
:100F200000690121C90488435349403108610846DA
:100F30000561801528408915884215D1FFF726FFE5
:100F4000064608E039E0FFF721FF801B4C49884244
:100F500001D90320A2E74848403000690121490235
:100F60000840400A0028EED000BF00BF032109045A
:100F70006068084088420AD13F48006809018843F8
:100F8000032212056168114008433B49086000BF15
:100F90003948403000690322120461681140084357
:100FA00035494031086100BF012F05D13248806BBF
:100FB000890588433049886300BF2078C007C00F87
:100FC000002809D02C484030C06880088000A16803
:100FD000084329494031C86002212068084002289E
:100FE00009D125484030C0680C218843E168084396
:100FF00021494031C86004212068084004280AD1F2
:101000001D484030C0680321890288432169084394
:1010100019494031C86008212068084008280AD1D1
:1010200015484030C06803210903884361690843BB
:1010300011494031C860402120680840402809D14A
:101040000D484030C06809058843E16908430A49F2
:101050004031C86080212068084080280AD10648B5
:101060004030C068032189048843A16908430249CC
:101070004031C860002011E70010024000700040BD
:1010800088130000F8B504460D46002C01D101205C
:10109000F8BD79480068C007C00FA8420ED2764854
:1010A000006840084000284373490860084600680B
:1010B000C007C00FA84201D00120E9E70221206843
:1010C0000840022807D16D48C068F0218843A16814
:1010D00008436A49C8602078C007C00F00284CD078
:1010E0006068022809D16548006801214904084068
:1010F000400C002824D10120CAE76068032809D1E8
:101100005E480068012149060840400E002817D1BA
:101110000120BDE76068012808D158480068042113
:101120000840800800280BD10120B1E7534800682F
:10113000012149020840400A002801D10120A7E707
:101140004E48C06880088000616808434B49C86009
:10115000FFF71CFE0646606802280FD107E0FFF784
:1011600015FE801B4649884201D9032090E7434879
:10117000C0680C2108400828F1D134E060680328D9
:101180000FD107E0FFF702FE801B3D49884201D9DD
:1011900003207DE73948C0680C2108400C28F1D1B4
:1011A00021E0606801280FD107E0FFF7EFFD801B09
:1011B0003349884201D903206AE73048C0680C21CE
:1011C00008400428F1D10EE007E0FFF7DFFD801BA7
:1011D0002B49884201D903205AE72848C0680C21CE
:1011E00008400028F1D124480068C007C00FA84279
:1011F0000ED9214800684008400028431E49086075
:1012000008460068C007C00FA84201D001203FE790
:10121000042120680840042808D11848C068072124
:1012200009028843E16808431449C860082120681E
:101230000840082809D11148C0680721C90288431D
:101240002169C90008430D49C86000F01FF80B4927
:10125000C968F022114009090A4A515CC8400A498C
:1012600008600020FFF7B6FD0746002F01D0384682
:101270000EE700200CE700000020024000100240B2
:10128000881300003D3A00082C000020FEB52E48CF
:10129000C7680C203840002845D0042804D008280E
:1012A0000CD00C283ED10BE02748006810210840E4
:1012B000002801D0254C00E0254C41E0254C3FE0C2
:1012C0000F2080043840800C23490E5C03208005E9
:1012D0003840800D401C01901B48C0680121090462
:1012E0000840002807D01B49714308460199FEF7C2
:1012F000FFFE054614E0144800681021084000284D
:1013000007D01249714308460199FEF7F1FE0546E0
:1013100006E00F49714308460199FEF7E9FE0546CC
:101320002C460DE000BF08484068072149030840EB
:10133000400B00900098401C01218140CC0300BF6D
:1013400000BF2046FEBD00000010024000093D0025
:101350000024F40000127A00553A0008FEB5044655
:10136000002C01D10120FEBDF848C6680C210E40BA
:10137000C768012109040F402078C007C00F00286A
:1013800072D0082E04D00C2E0FD1084687420CD103
:10139000EE480068012149040840400C002863D051
:1013A0006068002860D10120DDE700BF0121090449
:1013B0006068884205D1E54800680843E349086051
:1013C00027E005210904606888420ED1DF480068E3
:1013D000012189040843DD490860084600680121AD
:1013E00009040843D949086013E0D848006801217E
:1013F00009048843D54908600846006801210904AA
:101400000840009000BFD148006889008843CF4958
:10141000086000BF6068002813D0FFF7B7FC0546DE
:1014200006E0FFF7B3FC401B642801D903209AE7CC
:10143000C6480068012149040840400C0028F0D04B
:1014400012E0FFF7A3FC054606E0FFF79FFC401BF8
:10145000642801D9032086E7BC48006801214904BB
:101460000840400C0028F0D10221206808400228E2
:101470007AD1E0680290042E03D00C2E34D1002FD4
:1014800032D1B2480068042108408008002804D006
:101490000298002801D1012065E7AC4840681F216F
:1014A00009028843216909020843A849486008469F
:1014B00000680921884302990843A4490860FFF79E
:1014C000E5FEA249C968F02211400909A04A515C11
:1014D000C840A04908600020FFF77CFC01900198FB
:1014E000002841D001983EE70298002824D0974870
:1014F0000068092188430299084394490860FFF76E
:1015000045FC054606E0FFF741FC401B022801D9D7
:10151000032028E78D48006804210840800800283F
:10152000F1D08A4840681F210902884321690902D5
:1015300008438649486017E0844800684008400036
:1015400082490860FFF722FC054606E0FFF71EFC13
:10155000401B022801D9032005E77C4800680421CC
:10156000084080080028F1D1102120680840102888
:1015700067D1002E36D17548006849010840400AFD
:10158000002804D0E069002801D10120EBE66F4873
:101590004068072149038843616A08436B494860F2
:1015A000084640680002000A218C09060843674982
:1015B0004860606A400B401C01218140C8036349B8
:1015C000C968F02211400909614A515CC84061496B
:1015D00008600020FFF7FEFB0190019800284BD027
:1015E0000198C0E6E06900282CD058480068FF2127
:1015F0000131084355490860FFF7C8FB054606E07E
:10160000FFF7C4FB401B022801D90320ABE64F487B
:101610000068012149020840400A0028F0D04B48E8
:101620004068072149038843616A08434749486085
:10163000084640680002000A218C09060843434915
:10164000486019E041480068FF21013188433F4963
:101650000860FFF79BFB054606E0FFF797FB401B82
:10166000022801D903207EE638480068012149029A
:101670000840400A0028F0D10821206808400828C6
:1016800039D1606900281BD0304840300069012101
:1016900008432E4940310861FFF778FB054606E014
:1016A000FFF774FB401B022801D903205BE62748A3
:1016B000403000690221084040080028F0D01AE0BC
:1016C000224840300069400840002049403108610C
:1016D000FFF75CFB054606E0FFF758FB401B0228BE
:1016E00001D903203FE61948403000690221084033
:1016F00040080028F0D1042120680840042879D14E
:10170000002000901148806B89060840002806D10F
:101710000E48806B08430D498863012000900E48F5
:101720000068FF210131084000281ED10A480068E6
:10173000084309490860FFF729FB05460EE0FFF75B
:1017400025FB401B642809D903200CE60010024049
:101750003D3A00082C00002000700040B1480068AD
:10176000FF21013108400028E9D000BFFF210131ED
:10177000A068884205D1AC4800690843AA490861BD
:1017800030E0A06800280DD1A7480069FF21013191
:101790008843A54908610846006909158843A2499C
:1017A00008611FE005210902A06888420DD19E480A
:1017B00000690121890208439B49086108460069C4
:1017C00089150843984908610CE097480069FF2192
:1017D0000131884394490861084600690915884326
:1017E0009149086100BFA068002815D0FFF7CEFA24
:1017F000054608E031E0FFF7C9FA401B8B498842F3
:1018000001D90320AFE58848006901214902084059
:10181000400A0028EFD013E0FFF7B8FA054607E0CA
:10182000FFF7B4FA401B8149884201D903209AE5A9
:101830007D480069012149020840400A0028EFD193
:101840000098012808D178484038806B01210907A9
:10185000884375494039886300BF202120680840CB
:10186000202852D1A06900282BD000BF6E484038F4
:101870008068012108436C49403988600846406B04
:10188000012108436849403948636948006A0121D9
:10189000490308436649086200BFFFF777FA054627
:1018A00006E0FFF773FA401B022801D903205AE52E
:1018B0005D48403880680221084040080028F0D088
:1018C00023E000BF5848403880684008400056492F
:1018D000403988605648006A0121490388435449C9
:1018E000086200BFFFF752FA054606E0FFF74EFA1E
:1018F000401B022801D9032035E54B484038806859
:101900000221084040080028F0D1A06A00284CD0ED
:101910000C2E69D0A06A022848D14348403800689C
:10192000012109068843404940390860FFF72EFA33
:10193000054606E0FFF72AFA401B022801D90320DA
:1019400011E5394840380068012149060840400E39
:101950000028EFD1216BE06A0843616B08433249EC
:101960004039C968FD221204914308432E49403989
:10197000C860084600680121090608432A49403921
:101980000860FFF703FA054606E0FFF7FFF9401B82
:10199000022801D90320E6E42348403800680121E9
:1019A00049060840400E0028EFD038E01E48403875
:1019B00000680121090688431B4940390860FFF788
:1019C000E5F9054606E0FFF7E1F9401B022801D9D9
:1019D0000320C8E414484038006801214906084043
:1019E000400E0028EFD11AE0A06A012800D1BAE425
:1019F0000D484038C768012000043840E16A884239
:101A00000BD10F2080043840216B884205D1032080
:101A100080053840616B884201D00120A3E400209A
:101A2000A1E4000000700040401002408813000054
:101A30000000014070B504462546681E09498842E9
:101A400001D901200CE0681E074948610321081FE5
:101A500000F0B8FD002004498861072008610020DB
:101A600070BD0000FFFFFF0000E000E000BFFEE7E8
:101A7000014948617047000000040140024949687B
:101A80008143014A516070470004014002490968DE
:101A90008143014A116070470004014002494968CE
:101AA0000143014A51607047000401400249C9687E
:101AB0000143014AD16070470004014002490968AE
:101AC0000143014A116070470004014002498968DE
:101AD0000143014A916070470004014070B504461B
:101AE0000025207900284DD02068002850D060794A
:101AF000002804D0012809D0022815D10DE0206863
:101B0000FFF7BCFF2068FFF7D9FF0FE02068FFF761
:101B1000BDFF2068FFF7C2FF08E02068FFF7CEFF97
:101B20002068FFF7BBFF01E0012500BF00BFA079DF
:101B300000282DD0A079012804D002280DD0032838
:101B40001DD115E020681349C9688143114AD1604D
:101B500000BF2068FFF7BAFF13E020680D498968CD
:101B600081430C4A916000BF2068FFF79FFF08E0A7
:101B70002068FFF7ABFF2068FFF798FF01E0012521
:101B800000BF05E02068FFF781FF2068FFF776FFC0
:101B9000284670BD000401400146044840690840E1
:101BA000884201D1012070470020FCE70004014079
:101BB000F0B502460B460026002162E00124B44045
:101BC00018682040014600295AD0586814680D460C
:101BD0004D436F00ED19AC430D464D4345432C4337
:101BE000146000BF5868012802D0586802280DD13F
:101BF000986894680D464D436F00ED19AC430D464F
:101C00004D4345432C43946000BF00BF1869D4681E
:101C10000D464D436F00ED19AC430D464D43454312
:101C20002C43D46000BF5868022829D1FF2911D85D
:101C30005869146A0D464D434D434D432F017D1B9A
:101C4000AC430D464D434D434D4345432C43146235
:101C500000BF15E05F69080A40430C0A60430C0AA4
:101C600060430401241A506AA0430C0A64430D0A1D
:101C70006C430D0A6C437C432043506200BF00BF9D
:101C8000761C1868F040002898D15868012802D0C6
:101C90005868022809D1DC681868556885430746EA
:101CA00067433D43556000BF00BF0020F0BD816128
:101CB000704730B503680C464C4365006419A34374
:101CC0000C464C4354432343036030BD30B5C368D6
:101CD0000C464C4365006419A3430C464C435443E3
:101CE0002343C36030BD000008B50549C96A0143FC
:101CF000034AD1621146C96A0140009100BF08BD84
:101D00000010024008B50549C96A0143034AD1627F
:101D10001146C96A0140009100BF08BD0010024091
:101D2000F8B504460025032C2FD1204600F066F8B4
:101D30002104401A1ED0012804D0022806D003280E
:101D400017D10FE000F0B2FC05461DE000F060F88E
:101D5000002806D000F064F8002801D0254D00E0EE
:101D6000254D11E000F064F8002801D00125ED03B5
:101D70000AE000BF00F09AFC074600F061FC06464E
:101D800000F082FC054600BF00BF0C2C2FD120467E
:101D900000F034F82104401A1ED0042804D008288A
:101DA00006D00C2817D10FE000F080FC05461DE09E
:101DB00000F02EF8002806D000F032F8002801D0FC
:101DC0000C4D00E00C4D11E000F032F8002801D07D
:101DD0000125ED030AE000BF00F068FC074600F0B3
:101DE0002FFC064600F03EFC054600BF00BF28461B
:101DF000F8BD000000093D000024F400014603483E
:101E0000C06808400A0410437047000040100240B8
:101E10000248006804210840800870470010024012
:101E20000248006810210840000970470010024075
:101E300003480069012149020840400A7047000038
:101E4000401002400248406807214903084070479B
:101E50000010024030B50246012300BF1068402444
:101E600020408009002826D14C68086820438C68EF
:101E70002043CC6820430C6920434C6920438C6983
:101E80002043CC6920430C6A204314680D4D2C403C
:101E90002043106050680424A0434C69240C204364
:101EA00050605C03086AA04204D1486A84B214619D
:101EB00000BF00BF0023D0690124E402A043D06129
:101EC000184630BD4000FFFF10B5084A0B069B0DB9
:101ED000D2580C0C0F23A3409A430C0C0346A3408A
:101EE0001A43024B0C06A40D1A5110BD0800014004
:101EF00010B501460022134881420ED10120800313
:101F0000114B5B6A0343104C636200BF00BF234662
:101F10005B6A8343636200BF12E00C4881420ED1CA
:101F200001204004084B9B6A0343074CA36200BF97
:101F300000BF23469B6A8343A36200BF00E00122E7
:101F4000104610BD0038014000100240004400401F
:101F5000816801221143816070470168202211438A
:101F600001607047F0B585B004460D46012004902D
:101F700000200390204600F067F8002858D1E96857
:101F80006868084329690843A969084321682A4AFF
:101F9000114008432060A86861680322120391433E
:101FA0000143616000BF6869A16812119143014358
:101FB000A16000BF2148844204D10320FFF7B0FE96
:101FC000039006E01E48844203D10C20FFF7A8FED0
:101FD0000390039800282BD02868002828D00020E0
:101FE0000490039FA86902902E680121C9030298FA
:101FF000884214D17900720888183146FEF778F8C3
:1020000080B201900F4901980840009001980007A4
:10201000400F0099084300900098E06006E07108C6
:10202000C8193146FEF764F880B2E06000BF00BF17
:10203000049805B0F0BD0000F369FFEF00380140DF
:1020400000440040F0FF000001460868C007C00FD0
:1020500001225040504070478162704700B589B0FE
:10206000002007900890182101A8FEF75EF80420D0
:10207000FFF73AFE0120FFF737FE0220FFF734FE9C
:10208000202105200007FFF712FE0121C9030520CA
:102090000007FFF70CFE80218048FFF708FE0120B3
:1020A0000190032002900020059001A9052000075F
:1020B000FFF77EFD02200190032002900020059092
:1020C00001A905200007FFF773FD102001900320F0
:1020D00002900020059001A905200007FFF768FD88
:1020E0002020019001200290002003900490012004
:1020F000059001A905200007FFF75AFD4020019037
:10210000032002900020059001A905200007FFF799
:102110004FFD01200190032002900020059001A9AD
:102120005E48FFF745FD0220019003200290002049
:10213000059001A95948FFF73BFD042001900320B9
:1021400002900020059001A95448FFF731FDFF20BF
:1021500001300190032002900020059001A9052084
:102160000007FFF725FD01204002019003200290A7
:102170000020059001A905200007FFF719FD0120A7
:1021800080020190032002900020059001A9052003
:102190000007FFF70DFD0120C0020190032002900F
:1021A0000020059001A905200007FFF701FD01208F
:1021B000C0030190012002900020039004900120B0
:1021C000059001A905200007FFF7F2FC40200190CF
:1021D00000200290059001A93048FFF7E9FC80201B
:1021E00001900120029000200390049001200590AE
:1021F00001A92A48FFF7DCFCFF20013001900320F1
:1022000002900020059001A92448FFF7D1FC244941
:102210000020FFF759FE03210020FFF755FE0022A2
:10222000802105200007FFF751FD0022012109034D
:1022300005200007FFF74AFD002280210520000746
:10224000FFF737FD00220121090305200007FFF7F2
:1022500030FD80200790012108A801700021417005
:102260000121817007A8FFF739FC012000030790C6
:10227000012108A80170002141700221817007A886
:10228000FFF72CFC0121072000F024F90720012191
:102290008140044A116000BF09B000BD0004005035
:1022A00001000C0000E100E000BF10481049086088
:1022B00000BF00BF0F48086000BF0620486000BF95
:1022C0000D48886000BF00BF00BF0948C0684007D4
:1022D000400F002801D1012000E000200128F3D1A7
:1022E00000BF06480249086000BF7047CCCC000020
:1022F0000030004055550000FF0F0000AAAA000062
:1023000000B591B0282107A8FDF70FFF182101A8FB
:10231000FDF70BFF012000033049496B01432F4AB1
:1023200051631146496B0140009100BF00BF02207C
:102330001146C96A0143D1621146C96A0140009140
:1023400000BF00BF082001900220029003200390EC
:10235000002004900590069001A92148FFF728FC71
:10236000102001900220029003200390002004908E
:102370000590069001A91A48FFF71AFC2020019049
:102380000220029003200390002004900590069004
:1023900001A91348FFF70CFC00200790FF2005302F
:1023A0000890002009900A900B90012040020C90A8
:1023B00000200D900E900F900720109007A909485B
:1023C000FFF748FD00200749496810229143014367
:1023D000044A516000BF11B000BD0000001002406F
:1023E000000400500030014000B58FB01C2108A847
:1023F000FDF79BFE182102A8FDF797FE012040047F
:102400003049896B01432F4A91631146896B014022
:10241000019100BF00BF0120FFF774FC042002906F
:1024200002200390032004900020059006900420D1
:10243000079002A905200007FFF7BAFB08200290C9
:1024400002200390032004900020059006900420B1
:10245000079002A905200007FFF7AAFB02211C2014
:1024600000F074F81C2001218140174A116000BF60
:102470004B20C0010890002009900A900B900C207E
:102480000C9000200D900E9008A91048FFF76AFDEF
:1024900000BF0E4840680921C90288430B494860C3
:1024A000084680682A2188430849886000BF00BF29
:1024B00008460068012108430449086000BF0FB0C6
:1024C00000BD00000010024000E100E000440040B8
:1024D0007047000010B5002819DA1A4A03071B0FCD
:1024E000083B9B089B00D2588307DC0EFF23A340C8
:1024F0009A438B071B0E8407E40EA3401A43114B2B
:102500000407240F083CA408A4001A5118E00E4A3E
:1025100003231B02D21883089B00D2588307DC0ECA
:10252000FF23A3409A438B071B0E8407E40EA340AE
:102530001A43054B032424021B198408A4001A51D2
:1025400010BD00001CED00E000E100E010B5002827
:1025500019DA1A4A03071B0F083B9B089B00D25845
:102560008307DC0EFF23A3409A438B071B0E8407CF
:10257000E40EA3401A43114B0407240F083CA4089F
:10258000A4001A5118E00E4A03231B02D218830834
:102590009B00D2588307DC0EFF23A3409A438B078E
:1025A0001B0E8407E40EA3401A43054B03242402A8
:1025B0001B198408A4001A5110BD00001CED00E096
:1025C00000E100E010B5002819DA1A4A03071B0FD2
:1025D000083B9B089B00D2588307DC0EFF23A340D7
:1025E0009A438B071B0E8407E40EA3401A43114B3A
:1025F0000407240F083CA408A4001A5118E00E4A4E
:1026000003231B02D21883089B00D2588307DC0ED9
:10261000FF23A3409A438B071B0E8407E40EA340BD
:102620001A43054B032424021B198408A4001A51E1
:1026300010BD00001CED00E000E100E0704700006C
:10264000014600BF0548C068F02210401040000954
:10265000034A125C0846D040704700000010024058
:102660003D3A0008014600BF0548C0680722120233
:102670001040000A034A125C0846D0407047000030
:10268000001002404D3A0008014600BF0548C068EE
:102690000722D2021040C00A034A125C0846D0400A
:1026A00070470000001002404D3A000810B500BF0E
:1026B0001648C0680C210840002806D004280CD019
:1026C000082812D00C2816D111E0FFF7BBFB400BF5
:1026D000401C01218140CC0315E0FFF7A1FB00283D
:1026E00001D00B4C00E00B4C0DE00B4C0BE000F06C
:1026F00015F8044607E0FFF7A5FB400B401C01213D
:102700008140CC0300BF00BF204610BD0010024036
:1027100000093D000024F40000127A00F8B500BF63
:102720001448C0680121090408400546002D07D15E
:10273000FFF776FB002801D00F4C00E00F4C01E0C2
:102740000F4C00BF00BF00BF0A48C06803218905C5
:102750000840800D461C0748C0680F2189040840C6
:10276000800C0849085C604307463146FDF7C0FC11
:10277000F8BD00000010024000093D000024F400F4
:1027800000127A00553A000870B505460E46144608
:1027900031462846FDF752FE012C03D10120FDF7FA
:1027A000E7FF0DE0002C03D10020FDF7E1FF07E07B
:1027B000022C05D1FDF7CBFFFEF708F8FDF7F6FF79
:1027C00070BD0000F8B5002640214848FEF7CEFA5B
:1027D000002874D146A000F023FF4A4D00E06D1E92
:1027E00040214248FEF7C2FA002801D1002DF6D15F
:1027F000002404E0002044490855601CC4B2122C97
:10280000F8DB424A42494048FDF7A9FE06463F48E8
:102810000078FDF7E9FD07463D4803783246394622
:102820003CA000F0FDFE002406E03748015D44A016
:1028300000F0F6FE601CC4B2122CF6DB002E04D1B0
:1028400040A000F0EDFE0120F8BD2F480078AB2835
:1028500045D12D484078CD2841D12B480079C0285A
:1028600005D129484079C02801D10420ECE7264849
:102870000079C22805D124484079C22801D1052019
:10288000E2E721480079C32805D11F484079C328D1
:1028900001D10620D8E71C480079C42805D11A4880
:1028A0004079C42801D10720CEE717480079C52810
:1028B00006D115484079C52802D10820C4E713E0A5
:1028C00011480079C62805D10F484079C62801D1A2
:1028D0000920B9E726A000F0A3FE0320B4E72CA04E
:1028E00000F09EFE0220AFE70020ADE7000400509C
:1028F000696E74657272757074206F636375720AA5
:102900000000000020A10700D90000201E000020C8
:102910001D00002052535349203D20256464426D20
:102920002C206C656E677468203D2025642C206126
:10293000646472657373203D2025640A0000000002
:102940002578200072656365697665206572726F0F
:1029500072206F7220416464726573732046696CE3
:10296000746572696E67206661696C0A0000000018
:10297000726563656976652066756E6374696F6EEE
:10298000206F72646572206572726F720D0A0000AA
:1029900072656365697665207061636B6167652048
:1029A000626567696E6E696E67206572726F720D1F
:1029B0000A000000F0B585B00646330000F040FE86
:1029C0000AF5062F5881F6F3F2F1F0F5AB20FB493A
:1029D0000870CD204870FA4880788870F848C07830
:1029E000C870012008714871F54880798871F448F1
:1029F000C079C871F248007A0872F148407A48728A
:102A0000E0208872EF48007888747D20C000FEF7CF
:102A10000BF901221321E948FDF708FEA9E2AB20DA
:102A2000E6490870CD204870E54880788870E44811
:102A3000C078C870022008714871E14880798871B7
:102A4000DF48C079C871DE48007A0872DC48407AF5
:102A50004872E1208872DB48007888747D20C000CD
:102A6000FEF7E2F801221321D448FDF7DFFD80E2F2
:102A7000AB20D2490870CD204870D148807888704A
:102A8000CF48C078C870032008714871CC4880795D
:102A90008871CB48C079C871C948007A0872C848A3
:102AA000407A4872E2208872C648007888747D2097
:102AB000C000FEF7B9F801221321C048FDF7B6FDAA
:102AC00057E2AB20BD490870CD204870BC488078E3
:102AD0008870BB48C078C870D02008710120487148
:102AE000B9480068000E8871B74800680002000EFF
:102AF000C871B54800880004000E0872B24800781A
:102B00004872B2480068000E8872B048006800023F
:102B1000000EC872AD4800880004000E0873AB4870
:102B200000784873AA480068000E8873A8480068B7
:102B30000002000EC873A64800880004000E087446
:102B4000A3480078487400240FE06000A149085AA7
:102B5000001261001231994A505460009D49095C8D
:102B6000600013301154601CC4B2242CEDDB9A4871
:102B70000178924840308176984801788F484030FB
:102B8000C176904801788D48403001777D20C000A3
:102B9000FEF74AF801225D218848FDF747FDE8E18C
:102BA0009AE11FE19BE03AE000E0E1E100208B497F
:102BB0000870084601788A48FDF77AFEAB207F4905
:102BC0000870CD2048707E48807888707C48C07836
:102BD000C870D220087101204871794880798871C5
:102BE0007748C079C8717648007A08727448407A8C
:102BF00048727B48FDF784FE7849087008460078E3
:102C00006E4988726F48007888747D20C000FEF796
:102C10000BF8012213216948FDF708FDA9E1684876
:102C2000407C6749097C664AD27B654F00920191DE
:102C30000290BB7B7A7BF97AB87AFDF768FBAB2010
:102C40005E490870CD2048703846807888703846D4
:102C5000C078C870D3200871012048713846807947
:102C600088713846C079C8713846007A087238468B
:102C7000407A48722120FDF7C6FA50498872202018
:102C8000FDF7C1FA4D49C8722220FDF7BCFA4B4945
:102C900008732420FDF7B7FA484948732320FDF74D
:102CA000B2FA464988732620FDF7ADFA4349C87346
:102CB0002520FDF7A8FA414908742C20FDF7A3FA56
:102CC0003E4948743F48007888747D20C000FDF775
:102CD000ABFF012213213948FDF7A8FC49E1AB20E5
:102CE00036490870CD20487035488078887034485F
:102CF000C078C870D420087101204871324800683B
:102D0000000E8871304800680002000EC8712E481D
:102D100000880004000E08722B48007848722B4887
:102D20000068000E8872294800680002000EC87210
:102D3000264800880004000E087324480078487371
:102D400023480068000E8873214800680002000EC6
:102D5000C8731F4800880004000E08741C480078DF
:102D6000487400240FE060001A49085A00126100FC
:102D70001231124A505460001649095C6000133049
:102D80001154601CC4B2242CEDDB134801780B48AD
:102D9000403081761148017808484030C1760948B2
:102DA00001780648403001777D20C000FDF73CFFE8
:102DB00001225D210148FDF739FCDAE07C000020AA
:102DC000D90000201E000020100000200C00002070
:102DD00008000020340000201F00002022000020F6
:102DE000A00008086C48807A0006010E09066A48AF
:102DF000C07A0004FF221204104009186648007BC4
:102E000000021212104009186348407B0818039012
:102E100062480399FDF74CFD5F48807B0006010E78
:102E200009065D48C07B0004FF2212041040091807
:102E30005948007C00021212104009185648407C84
:102E4000081803905548001D0399FDF731FDAB208C
:102E500053490870CD2048704F48807888704E489C
:102E6000C078C870D5200871012048714A4880791F
:102E700088714948C079C8714748007A0872464845
:102E8000407A48724548FDF73BFD0546280E444907
:102E900088722802000EC8722804000E08734D7351
:102EA0003E48001DFDF72CFD0546280E3C49887361
:102EB0002802000EC8732804000E08744D743948A7
:102EC000007888747D20C000FDF7AEFE012213213A
:102ED0003348FDF7ABFB4CE000240DE0002061001F
:102EE000314A5052A1002D4A891808460830002165
:102EF000FDF7DEFC601CC4B2242CEFDB00202B4964
:102F000008707D20C0002A4908800021234898309D
:102F1000FDF7CEFC7D21C9002048A830FDF7C8FC94
:102F2000AB201F490870CD2048701B4880788870FE
:102F30001948C078C870D620087101204871164819
:102F4000807988711448C079C8711348007A087272
:102F50001148407A48721348007888747D20C00078
:102F6000FDF762FE012213210D48FDF75FFB00E033
:102F700000BF00BF002404E0002009490855601C80
:102F8000C4B25D2CF8DBFDF7E2FBFDF71FFCFDF79B
:102F90000DFC05B0F0BD0000D900002000000808BD
:102FA0007C0000201E000020340000201F000020B4
:102FB0002000002001460E48017300BF00BF00BF83
:102FC0000B4880680222104040080028F7D000BF5C
:102FD00000BF07488068C007C00F01225040504022
:102FE0000028F5D000BF0248C068C0B2704700009A
:102FF0000030014070470000F8B5304800784128A3
:103000005BD12E484078422857D12C4880784328FD
:1030100053D12A48C07844284FD128480079000667
:10302000010E0906254840790004FF2212041040D1
:1030300009182248807900021212104009181F480E
:10304000C0790E1831461E48FDF732FC1B48007A45
:103050000006010E09061948407A0004FF221204F6
:10306000104009181548807A000212121040091801
:103070001248C07A0E1831461148001DFDF718FCA1
:103080000F48FDF73DFC0002040E0D48FDF738FC2B
:1030900085B20B48001DFDF733FC074609A000F080
:1030A000BFFA21460CA000F0BBFA29460FA000F0A1
:1030B000B7FA394612A000F0B3FAF8BDEB000020D1
:1030C00000000808656570726F6D2070726F67721E
:1030D000616D20656E640A00616464725F6565708D
:1030E000726F6D203D2025780A00000073796E63B1
:1030F0005F656570726F6D203D2025780A000000C5
:10310000726669645F656570726F6D203D20257819
:103110000A00000010B531A000F082FA4B21C9016D
:1031200037A000F07DFA40A000F07AFA4E4801681E
:103130004EA000F075FA5348016853A000F070FAF1
:103140005748016857A000F06BFA0020FDF75BF8C4
:103150000446AD2C08D1002280215848FDF70FFE0F
:10316000FF20F530FDF760FD214655A000F058FA2C
:103170000120FDF748F804461D2C08D101228021CA
:103180004E48FDF7FCFDFF20F530FDF74DFD2146D3
:1031900053A000F045FA0220FDF735F80446F22C62
:1031A00008D1002280214548FDF7E9FDFF20F530D8
:1031B000FDF73AFD214653A000F032FA0320FDF757
:1031C00022F80446022C04D1012280213B48FDF75D
:1031D000D6FD21464FA000F023FA10BD0D0A204372
:1031E00043313130312063686970207472616E73CD
:1031F0006665722070726F6772616D200A00000050
:10320000207573696E67205553415254322C636F99
:103210006E66696775726174696F6E3A25642038ED
:103220002D4E2D31200A0000207768656E20696ED2
:10323000207472616E73666572206D6F64652C74A4
:1032400068652064617461206D757374206E6F749D
:103250002065786365656420363020627974657313
:1032600021210D0A00000000080000204465766955
:1032700063655F53657269616C30203A2025780A76
:10328000000000000C0000204465766963655F5310
:10329000657269616C31203A2025780A00000000CF
:1032A000100000204465766963655F53657269614B
:1032B0006C32203A2025780A0000000000040050FB
:1032C000416E616C6F672044657669636573206445
:1032D00065766963652049443A2025780A00000034
:1032E000416E616C6F672044657669636573204D3C
:1032F000454D53206465766963652049443A20252D
:10330000780A0000506172742049443A2025780AF6
:103310000000000056657273696F6E2049443A20C0
:1033200025780A00F0B504460D4616461F460023D0
:1033300004E0E05CFFF73EFE581C83B2B342F8DBCA
:10334000002305E0FF20FFF735FEE854581C83B248
:10335000BB42F7DBF0BD10B5FDF71EFD10BD000050
:1033600000B59BB038210DA8FCF7DFFE142108A89A
:10337000FCF7DBFE20216846FCF7D7FE1C480068FE
:103380000321C90288430121C90240181849086075
:1033900018200D9001201290149000201590052007
:1033A00040031690002017900DA8FDF7D7FF0028C6
:1033B00001D0FDF755FB0F200890002009900A90DE
:1033C0000B900C90002108A8FDF75CFE002801D0AE
:1033D000FDF746FB02200090002003906846FDF7B1
:1033E0002DFD002801D0FDF73BFB1BB000BD000008
:1033F0000070004015480068FF210131084313495F
:1034000008600846C068124908401049C86008466C
:103410000068104908400D49086008468068400867
:1034200040008860084600680121890488430749F4
:1034300008600846C068FD21090488430349C86044
:1034400000200861C80304498860704700100240EA
:103450000C40FF88F6FFF6FE00ED00E010B5FCF72B
:10346000A7FFFCF799FFFDF7C9FBFCF70FFF3148F9
:10347000FDF746FA0002000E2F4908702D48FDF7AF
:103480003FFA2E4908802B48001DFDF739FA2C49D8
:103490000860294801782BA000F0C2F8274801886D
:1034A0002DA000F0BDF82648016830A000F0B8F863
:1034B00002222248018820480078FFF765F900249D
:1034C00013E0A1001B4A891808460830FDF718FAD6
:1034D00061002B4A5052A100164A8918084608304C
:1034E0000021FDF7E5F9601CC4B2242CE9DB11488A
:1034F0009830FDF705FA2349087000210D489830EF
:10350000FDF7D6F90B48A030FDF7FAF91E4908700F
:1035100000210848A030FDF7CBF90648A830FDF798
:10352000EFF91A4908807D21C9000248A830FDF74B
:10353000BFF910BD0000080814000020160000208C
:1035400018000020616464725F656570726F6D20A1
:103550003D2025780A00000073796E635F65657011
:10356000726F6D203D2025780A0000007266696444
:103570005F656570726F6D203D2025780A00000040
:10358000340000201F000020220000202000002026
:1035900010B500BF0948C069202108404009002833
:1035A00009D000BF0548006808404009002802D043
:1035B00000F006F801E0FDF7CFF910BD004400402F
:1035C00010B500BF1249496AC9B2124A1078421CAC
:1035D000104B1A70104A115418460078401E115CA6
:1035E0000B48FEF739FD0B480078801E0A49085C3D
:1035F0000D280BD107480078401E085C0A2805D129
:1036000000200449087001200449087010BD000022
:103610000044004023000020EB0000202400002094
:103620000FB410B503A9044B044A029800F026F821
:1036300010BC08BC04B018475939000830000020FD
:1036400030B47446641E2578641CAB4204D3635DB9
:103650005B00E31830BC18471D46F8E702E008C8D5
:10366000121F08C1002AFAD170477047002001E0FC
:1036700001C1121F002AFBD170470000FFB58FB0B7
:103680000F460446002606E025280AD0129A119912
:103690009047641C761C20780028F5D1304613B082
:1036A000F0BD00250121A14A009500E00543641CFE
:1036B00023780846203B98401042F7D120782E28E6
:1036C00015D1042005436078641C2A280AD101CF53
:1036D000641C00900BE000990A22514330394018D5
:1036E000641C00902078014630390929F3D92078EC
:1036F0006C280ED004DC4C2813D06A2812D104E0C8
:1037000074280ED07A280DD10BE001204005054326
:1037100007E00121090562780D43824201D16D184D
:10372000641C641C2078864669284AD008DC00287E
:10373000B4D058286DD0632810D0642808D140E058
:1037400070286BD0732812D0752860D0782860D08C
:10375000129A704611999047761CE5E038786946D0
:1037600008720020487202A80190012003E0386826
:1037700001900020C0433F1D69070CD5002500E0E3
:103780006D1C00998D420FDA8542F9DB0199495D84
:103790000029F5D108E0002500E06D1C8542FCDB26
:1037A0000199495D0029F8D1761907E0019801993E
:1037B0000078491C0191129A119990476D1EF5D21B
:1037C000B2E00A20029000216802400F0391022813
:1037D0000CD001CFC117844600290DDA6246084695
:1037E00052420021814194462D2008E0FF1DFF0830
:1037F000FF0003CF8446EFE7280504D52B206A4657
:10380000107401203CE0E8073AD02020F7E70A20B6
:1038100000E0102000210391029007E010200290A8
:103820000021042005430820039100906802400F06
:10383000022810D001CF0021844600200D902807D7
:103840001FD5704670280CD0029A1020039B42406E
:103850001A430CD015E0FF1DFF08FF0003CF84467C
:10386000EBE740206A46107401200D900CE06046A2
:10387000084306D030206A46107470465074022007
:103880000D907046582804D029A001900DA80E90E4
:103890000DE02CA0F9E76046039B029AFCF750FC70
:1038A000019B84469B5C0E9A521E0E9213706046DA
:1038B0000843F0D10E9805A9081A20300190680736
:1038C00001D5009801E0012000900199884203DDB4
:1038D00001460198081A00E000200025009006E04B
:1038E00004A8129A405D119990476D1C761C0D98A2
:1038F0008542F5DB04E0129A302011999047761C3E
:103900000099481E00900029F5DC08E00E980E99F9
:103910000078491C0E91129A11999047761C0199D2
:10392000481E01900029F1DC641CB4E6092801005E
:103930003031323334353637383961626364656625
:1039400000000000303132333435363738394142E7
:103950004344454600000000044A906200BF034A09
:10396000D26980231A40002AF9D0704700440040F1
:10397000FDF71AFAFFF7F4FCFEF770FBFEF7C0FC48
:10398000FEF732FDFEF790FCFFF768FDFFF7C2FB84
:1039900019E000BF0C480D49086000BFFEF712FF98
:1039A0000B49087008460078002803D008460078C4
:1039B000FFF700F807480078012804D1FFF71CFB47
:1039C000002004490870E4E7AAAA00000030004083
:1039D0001C00002024000020081C3044586C80008B
:1039E00029012E0206034C04D3059106FF070708A0
:1039F0004509000A000B0B0C000D100EA70F6210FA
:103A00007B1183129B132214F815421603173018EA
:103A100018191D1A1C1BC71C001DB21E8C1FA020CC
:103A20007821B6221023EA242A2500261F274128C0
:103A30000029592A7F2B3F2C812D352E09000000AB
:103A4000000000000001020304060708090000004E
:103A50000001020304030406080C101820300000C3
:103A6000803A000800000020340000005C360008A6
:103A7000B43A000834000020E40400006C3600086A
:103A8000C000000000000000000000000000000076
:103A90000000000000000000000000000000000026
:103AA00000000000000000000000000000002000F6
:043AB0000000000012
:04000005080000C12E
:00000001FF
